:020000040040BA
:1000000090290120CD184000C9184000C9184000AF
:10001000C9184000C9184000C9184000000000007D
:10002000000000000000000000000000C9184000AF
:10003000C918400000000000C9184000C91840005D
:10004000C9184000C9184000C9184000C91840002C
:10005000C9184000C9184000C9184000000000003D
:10006000C9184000C918400000000000B501400058
:100070009D0240000000000055124000C9184000D9
:100080000000000000000000C9184000C91840002E
:10009000C9184000C9184000C9184000A510400008
:1000A000C9184000C918400000000000000000000E
:1000B00000000000C9184000C9184000C9184000DD
:1000C000C9184000C9184000C918400010B5054CB7
:1000D000237833B9044B13B10448AFF300800123F4
:1000E000237010BDC809002000000000547D4000AE
:1000F0000C4B43B10C480D4910B5AFF300800C48D0
:10010000036823B910BD0A48036833B97047094B27
:10011000002BF7D0BDE810401847064B002BF5D058
:10012000184700BF00000000547D4000CC090020AB
:10013000547D4000000000002DE9F047DFF870908A
:10014000D9F800C0BCF1060F2BD84FF00008164EAE
:10015000444602E0A445A0460CD3250104F1010E5B
:1001600077598F42A24635445FFA8EF4F2D16D681A
:100170009542EFD14FEA0A1A06EB0A040CF1010C82
:1001800046F80A1008996260A360E160C445114610
:100190001A46064B08BFC9F8008098470020BDE802
:1001A000F0870120BDE8F087E4090020E514400055
:1001B000540A002070B5334B33489847334B0546FB
:1001C00031489847054015D0314C20680B281DD088
:1001D00020690B2829D0206A0B282FD0206B0B28F0
:1001E00035D0206C0B283BD0206D0B2841D0206EE1
:1001F0000B2814D0274B1B683BB1274B1B681BB146
:100200002148BDE87040184770BD70BD61680D425F
:10021000DED0E368984763689D43EBD0D8E7616E12
:100220002942E7D0E36E9847E4E761692942D2D0DA
:10023000E369984763699D43DCD0CCE7616A294252
:10024000CCD0E36A9847636A9D43D3D0C6E7616B1D
:100250002942C6D0E36B9847636B9D43CAD0C0E781
:10026000616C2942C0D0E36C9847636C9D43C1D058
:10027000BAE7616D2942BAD0E36D9847636D9D433B
:10028000B8D0B4E715154000000E0E401915400017
:10029000E409002064F90020580A002070B5334BAF
:1002A00033489847334B054631489847054015D0A9
:1002B000314C20680C281DD020690C2829D0206AD8
:1002C0000C282FD0206B0C2835D0206C0C283BD06C
:1002D000206D0C2841D0206E0C2814D0274B1B68B1
:1002E0003BB1274B1B681BB12148BDE87040184744
:1002F00070BD70BD61680D42DED0E36898476368E9
:100300009D43EBD0D8E7616E2942E7D0E36E984772
:10031000E4E761692942D2D0E369984763699D4364
:10032000DCD0CCE7616A2942CCD0E36A9847636AA3
:100330009D43D3D0C6E7616B2942C6D0E36B984793
:10034000636B9D43CAD0C0E7616C2942C0D0E36CA7
:100350009847636C9D43C1D0BAE7616D2942BAD01A
:10036000E36D9847636D9D43B8D0B4E71515400021
:1003700000100E4019154000E409002064F9002027
:10038000580A0020F0B50C688DB00E460746002CC8
:1003900079D0DFF82CC28D68BCE80F000DF1040E97
:1003A000AEE80F00BCE80F00AEE80F009CE80700C5
:1003B000019BB5FBF3F3B3FBF4F3B3F5807F8EE859
:1003C00007005DD9029BB5FBF3F3B3FBF4F3B3F580
:1003D000807F40F2CD80039BB5FBF3F3B3FBF4F3D6
:1003E000B3F5807F40F2C880049BB5FBF3F3B3FB09
:1003F000F4F3B3F5807F40F2C180059BB5FBF3F3C6
:10040000B3FBF4F3B3F5807F40F2BC80069BB5FBF1
:10041000F3F3B3FBF4F3B3F5807F40F2B780079BAF
:10042000B5FBF3F3B3FBF4F3B3F5807F40F2B48094
:10043000089BB5FBF3F3B3FBF4F3B3F5807F40F215
:10044000AD80099BB5FBF3F3B3FBF4F3B3F5807F09
:1004500040F2AA800A9BB5FBF3F3B3FBF4F3B3F5C8
:10046000807F40F2A3800B9BB5FBF3F3B3FBF4F367
:10047000B3F5807F40F2A0804FF6FF700DB0F0BD65
:10048000002443EA04247568002D6DD0DFF830C1E4
:10049000B668BCE80F000DF1040EAEE80F00BCE832
:1004A0000F00AEE80F009CE80700019BB6FBF3F3DA
:1004B000B3FBF5F3B3F5807F8EE807005AD9029BB2
:1004C000B6FBF3F3B3FBF5F3B3F5807F58D9039B89
:1004D000B6FBF3F3B3FBF5F3B3F5807F54D9049B7C
:1004E000B6FBF3F3B3FBF5F3B3F5807F50D9059B6F
:1004F000B6FBF3F3B3FBF5F3B3F5807F4AD9069B64
:10050000B6FBF3F3B3FBF5F3B3F5807F48D9079B54
:10051000B6FBF3F3B3FBF5F3B3F5807F42D9089B49
:10052000B6FBF3F3B3FBF5F3B3F5807F40D9099B3A
:10053000B6FBF3F3B3FBF5F3B3F5807F3AD90A9B2F
:10054000B6FBF3F3B3FBF5F3B3F5807F36D90B9B22
:10055000B6FBF3F3B3FBF5F3B3F5807F8CD80A2237
:1005600043EA022344EA034400203C600DB0F0BD9E
:10057000012486E70022F3E7022482E7032480E7D0
:100580000122EDE704247CE70222E9E7052478E76D
:100590000322E5E70422E3E7062472E7072470E775
:1005A0000522DDE70622DBE708246AE7092468E77D
:1005B0000722D5E70822D3E70A2462E70922CFE71A
:1005C000086D4000F0B44B688F8A0D898A7A8E7D61
:1005D000CC7D03F00F033B432B4343EA42230A68DD
:1005E0000D7E43EA064343EA444300EB421443EAE8
:1005F0008543C4F80032CB68C4F804320B69C4F8F0
:100600000C328B7D1BB1D1F81A30C4F81832CE7F72
:100610008C7F856C4FF001139340DB4396409440F0
:100620001D4044EA06442C43846491F8216091F80B
:100630002040456C944096401D4044EA06432B43BD
:10064000436491F82240012393401CB3046A1C4385
:10065000046291F82440012C846E0CBF1C439C431F
:10066000846691F82540012C846E0CBF44EA034354
:1006700024EA0343836691F82330C16ED200FF243D
:10068000944003FA02F221EA04031A43C266F0BC62
:1006900000207047046A24EA03040462D9E700BF1B
:1006A0000B69934202D24FF6FF7070470B68CA6025
:1006B00000EB43130020C3F808227047012303FA1C
:1006C00001F14160704700BF012303FA01F181602D
:1006D000704700BF10B489014318022444504FF002
:1006E000FF319962196A5A6010BC7047890105236D
:1006F0004350704700EB8111CA61704700EB8111D4
:100700004A62704700EB8111086A704730B4B0EB61
:10071000510F029C20D84D0CA84220D2B0EBD10F33
:100720004FEAD14518D8A84224D2B0EB511F4FEA66
:10073000515511D8A84220D2B0EBD11F4FEAD15564
:100740000AD8A8421CD2E40BB1FBF4F181424FEA73
:10075000114501D3854216D9002030BC70470021D5
:10076000022402B114601BB10120196030BC704733
:100770000120F2E701210824F3E702212024F0E719
:1007800003218024EDE70421EBE700BF70B50246AA
:100790004FF0FF3383628023006A13600820202318
:1007A0000424156B1060136014604868704B984205
:1007B00068D8704D0B68A8422FD84000B3FBF0F307
:1007C000043BFF2B40F29C805808FF2840F2AA808F
:1007D0009808FF2840F2AB80D808FF2840F2AA8092
:1007E0001809FF2840F2B0805809FF2840F2B08075
:1007F0009809FF287ED9DB09FF2B98BF07247BD9F6
:100800004FF4E0241802DBB280B2234303431361A8
:1008100000204B7A012B32D070BD574D574EA5FBAF
:1008200003E5AD0B043D0644FF2D4FEA8606B3FBFE
:10083000F6F3A3F1040365D96808FF2870D9A80866
:10084000FF2872D9E808FF287CD925FA04F0FF2890
:100850001BD96809FF2879D9A809FF2814D9E80904
:10086000FF2878D94FF4E024C0B21B0204439BB2A6
:10087000234313614B7A012B4FF00000CCD140236E
:10088000136070BD0120C4E70624FF2B66D95E0803
:10089000FF2E04F1010553D9072D2FD09E08FF2EFE
:1008A00004F1020449D9072C28D07308FF2B04F166
:1008B00001051BD9072DD5D0B308FF2B04F1020584
:1008C00014D9072DCED0F308FF2B04F103050DD961
:1008D000072DC7D03309FF2B04F1040506D9062DD7
:1008E000C0D17309FF2B98BF0725BBD82C0404F493
:1008F000E024B9E703460624240483E73346B1E73E
:1009000000247FE7FF2B2FD95C08FF2C28D99E08F5
:10091000FF2E284688BF0224C7D833460225E5E7C4
:100920000124B2E703460124E6E70224ADE70346CB
:100930000224E1E703460324DEE733462546D5E7F4
:100940003346D3E70324A0E70346D5E705249CE715
:1009500003460524D0E7FF2B84D80724240483E72B
:10096000284623460125C1E7284600247CE700BF2E
:10097000801A060000DC0500F11976050012FD3F23
:10098000CB68002B54D0F0B400268C6846604A68CF
:100990000D7C120202F440722D0442F4805205F4E0
:1009A000FE052A434260C6604A6822BB1546012BF9
:1009B000C5602ED0012202600026026AD50547F2EA
:1009C00030514FF0020712D44D1E002933D0012BB5
:1009D0002AD0920707D5026B2270013B04F1010473
:1009E0001BD047F23055026A2946D505ECD50523C0
:1009F0001846F0BC7047012A0D78D8DD4E78022ADF
:100A000046EA0525D3D08A78012B42EA0525C56040
:100A1000D0D1032202601E46CFE7026AD107FCD57F
:100A2000026AF0BC1846704706B907600126D0E795
:100A300001231846704709231846F0BC704700BFD1
:100A40000346C868002834D070B400268C685E6005
:100A50000A7C4D6812042D0202F4FE0205F4407572
:100A60002A435A60DE604A688AB91546DD601A6A10
:100A7000D60509D45507FAD514F8012B5A63013865
:100A800013D01A6AD605F5D5052070BC7047012A27
:100A90000D78EBDD4E78022A46EA0525E6D08A7805
:100AA00042EA0525E2E7510705D41A6AD405EBD4DA
:100AB000F9E70120704702221A601A6AD207FCD5B2
:100AC00070BC7047F0B5294B294CC0F8E4300023C6
:100AD00043604FF0880E4362242783624FF4807690
:100AE00023604FF400254FF40033C0F800E00760A6
:100AF00006600560036091B30B681D01AA4222D312
:100B00006B0803EBC202B2FBF5F2D3085E1E4FF690
:100B1000FE75AE4223D8120402F4E0221A430262A8
:100B20004B688E680D69C968426833432B430B4399
:100B30001A4342604268236022F00F0343F002032D
:100B400043600020F0BDDD006B0803EBC202B2FB86
:100B5000F5F2D3085E1E4FF6FE75AE4201D90120B4
:100B6000F0BD456845F400254560D4E70041535584
:100B70005C0A002040230360704700BF102303601D
:100B8000704700BF81607047C1607047406970471F
:100B900043699B07FCD5C1F30801C1610020704780
:100BA0000A783AB143699B07FCD5C26111F8012F5D
:100BB000002AF7D1704700BF4369DB0705D5836979
:100BC000C3F308030B60002070470120704700BF8B
:100BD0004FF4004343607047014B01221A60704795
:100BE000600A002070B53F4C3F4B404E404D86B0F0
:100BF0004FF4004200930B2101232046B0473D4AA9
:100C00003D4B3E4E4FF40061116020464FF40041D1
:100C100098473B4B00220B201A60A847D4F850316C
:100C200023F00103C4F85031D4F8583143F00803DD
:100C3000C4F85831D4F8503123F03003C4F850319F
:100C4000D4F8503143F02003C4F85031D4F8503177
:100C500023F40073C4F85031D4F85031012223F446
:100C600080631146C4F850310920B0474FF08051DD
:100C7000244B11209847244B23224FF400715A64CF
:100C80001A46196093689B05FCD51320A8471F4995
:100C90001F4A204B03912048049203A99847154B03
:100CA0001E4D1D4C4FF400220021C3F88020C3F8D4
:100CB000802183F813131A602046A8470128FBD02F
:100CC000174C15480021A04701211348A0470221D5
:100CD0001148A04704211048A0471248124B9847DA
:100CE00006B070BD000E0E40D90B40003901400027
:100CF000D517400000E100E011154000A5174000A5
:100D0000600A00205515400000040E40000E270721
:100D1000801A06008D07400000800140F50E40005B
:100D20002D1040006E5E88010100002070B4134950
:100D3000134E012300254EF6602402E00133A34246
:100D400019D05A1E885CFF280FD08A5CFF2AF5D183
:100D5000CA5CD92AF2D1002DF0D00949094A0868A5
:100D6000181A106070BC01307047C85CD82804BFE6
:100D700032600125E9E7002070BC7047C40A0020FA
:100D8000680A0020640A002038B54FF400411C486E
:100D90001C4B1D4C98472368002BFCD0184D1B4B57
:100DA00028464FF400419847194B28469847D5F8F4
:100DB0006C31BBB9D5F87C31A3B9164BC5F8683195
:100DC00043F698220123C5F86C21C5F888310C4AF6
:100DD000D2F860311B07FBD509480F4B9847002319
:100DE000236038BD064BD3F87C21002AEFD1094A95
:100DF000C3F8782143F69822C3F87C21E7E700BFC7
:100E0000000E0E400D154000600A00201115400034
:100E10009D164000C40A0020B51640002DE9F0419F
:100E20004FF0006184B0204F204C214E214DDFF85F
:100E3000A0800020B8474FF000610120B8471E4B4A
:100E40001F20984720460021B04720460121B04787
:100E50001A491B4A0191002601A92046194B039209
:100E600002969847184B2E810B225A606A604FF405
:100E7000C86219461A6101272A6120467822EA6071
:100E80001E811E609F72DA60AF722F60C0472946D4
:100E90002046C0470D4D31462046A84739462046DA
:100EA000A84704B0BDE8F08155154000000002409D
:100EB000C906400028F50020D51740008038010001
:100EC000000E27078503400050F50020BD064000B6
:100ED000C505400050290A4638BF5022A02A0146C5
:100EE00028BFA022014B0248184700BFA1064000BE
:100EF000000002402DE9F04393B00124FF224FF09F
:100F000000090DF10303302503A9DFF81C81CDF89A
:100F10001C900646CDF80C9005938DF80C208DF8AA
:100F20000340049406948DF81C50C0470A233D4F9B
:100F30008DF8203008A901AB30460A93CDF8049013
:100F4000CDF808908DF8305009940B94B8470B23D6
:100F50008DF83430304602AB0DA90F938DF8445014
:100F60000E941094B847019A029B43EA0223C3F3FC
:100F70000723262B03D0012013B0BDE8F0831C23E8
:100F800002AA0DA930460F928DF83430CDF80890A2
:100F9000CDF820900E948DF844501094B8471D233E
:100FA00008AA0DA930468DF834300E948DF84450BF
:100FB0000F921094B847029B7F2BDCD1089BA22B89
:100FC000D9D102AB0DA930460F93CDF80490CDF8DE
:100FD0000890CDF820908DF834400E948DF8445050
:100FE0001094B84708AAAD230DA930460F92089374
:100FF000C04701AB0DA930460F93B847019A089B33
:101000009A42B8D102AB0DA930460F93C04701AB4D
:101010000DA930460F93B847019A029B9A42AAD174
:101020004846A9E781094000410A400011292FD80C
:101030002DE9F041184B53F8214086B054B30646D1
:1010400001340125154FDFF858800CE0FE2B1BD032
:101050008DF8043002958DF8142004950394B84758
:1010600008280DD0023414F8013CFF2B4FF0300259
:1010700001A93046EAD194F800E0BEF1FF0FE7D1B4
:10108000002006B0BDE8F0814AF26A70C047E9E787
:10109000012070470120F4E7346D4000410A400010
:1010A0000100002008B50021054B06489847C306FB
:1010B00004D5054A13780133DBB2137008BD00BFB5
:1010C000050740000000014024F5002070B5154DD3
:1010D000154B164E164C84B017209847294603AB83
:1010E00002AA00950120B047039A124B204642F411
:1010F000804200219847029A0F4BB5FBF2F220463E
:10110000002198470D4A0E4B4FF400012046116014
:10111000102200219847204600210A4B984704B02E
:1011200070BD00BF000E2707D51740000D07400017
:1011300000000140D5064000F506400000E100E057
:10114000FD064000ED064000014B01221A60704789
:10115000780A00202DE9F0412A4D2B4C01262E70F3
:1011600023788EB033B932212848294B984708B1EB
:10117000267029E0274C2368012B32D0264E2368A5
:10118000012B37D025492148254CB0472060D8B1E4
:10119000DFF8BC80234F0330C047234900F17803B8
:1011A0001A483B60B047034603302360C04700F154
:1011B00078031E481E4903603A681E4C01A8A047E8
:1011C00001A91D481D4B984700244FF47A72012154
:1011D0001B4B0E482C7098471A4B1C600EB0BDE894
:1011E000F081194909480C4EB0470028C7D00223A6
:1011F0002360E9E715490548B0470028C2D000231D
:101200002360E1E7810A0020800A002078F50020B1
:10121000051F4000840A00209D224000C87940003C
:1012200060F900200C000020CC7940001000002064
:10123000D0794000B91E400000400240A10B4000A0
:101240001D1E40006C0A0020AC794000B8794000B7
:10125000911C40000B4B0C4810B59847C3040FD5A8
:101260000A4C0B4B0848214698470A4B0A490B4841
:1012700001221A7023680A68DBB2541C0C60835484
:1012800010BD00BF8D0B400000400240740A0020DA
:10129000B90B4000700A00206C0A002078F500208D
:1012A000F0B51A4D1A4C1B4E1B4F87B0294605202E
:1012B000A04729460620A0472946184D0820A047E8
:1012C0000FCD6C460FC495E80300154A154B3A60E4
:1012D00084E803000E2098473A68134B694630466D
:1012E00098474FF0FF313046104B98473046104B2F
:1012F000984730460F4B9847304601210E4B984790
:101300000E4B4FF480421A6007B0F0BD0100000898
:1013100055154000004002407C0A002094794000AE
:10132000000E2707D5174000C50A4000890B400072
:10133000750B40007D0B4000850B400000E100E094
:1013400030B50D4B0D4C0E4D83B00C2098470D4B16
:101350000093204671234FF400620C21A8470A4AEB
:101360000A4B4FF48051116020464FF4006103B0E6
:10137000BDE83040184700BFD517400000100E40B0
:10138000390140005511400000E100E00D1540001A
:1013900030B50C4B0C4C0D4D83B00C2098470C4BCA
:1013A00000932046712301220C21A847094A0A4BC9
:1013B0004FF4805111602046012103B0BDE8304058
:1013C000184700BFD517400000100E4039014000FB
:1013D0004911400000E100E00D1540000146014BBD
:1013E00001481847A10B4000004002402DE9F0479A
:1013F000194BCCB0984710B94CB0BDE8F087054602
:101400002B4605F144021549154C164EDFF860A035
:101410001AA8A0471AA91448D047346833682B4447
:101420009C420DD8DFF84C90DFF84C800E4F19F835
:1014300004103846C047336801342B44A342F6D227
:101440000A4B0FCB01AC07C401A907482370D04752
:101450004CB0BDE8F08700BF2D0D4000F87940008A
:10146000B91E4000680A0020004002404C7A40004B
:10147000A10B4000C40A0020910B400070B50F483A
:101480000F4D104CA8473E2100200F4B9847A04716
:101490000028FCD00D4B0E4C98470E4B0E4A9A621A
:1014A000A0470028FCD00D4B102098470C4B9847C4
:1014B0002B460248BDE87040184700BF000E2707C2
:1014C000491A400075174000251740008517400055
:1014D0009517400000040E40013F1320CD16400038
:1014E00061194000D3060ED59306C0F8B0104CBF6A
:1014F000C0F8D410C0F8D01053064CBFC0F8C010CC
:10150000C0F8C4107047C0F8B41070470164704749
:1015100041647047C06C7047806C7047430903F5A5
:10152000001303F207735B0200F01F00012202FAAE
:1015300000F01863704700BF430903F5001303F27E
:1015400007735B0200F01F00012202FA00F05863EB
:10155000704700BF430903F5001301F0F04203F2A6
:101560000773B2F1005F70B44FEA432300F0868046
:101570000BD8B2F1805F28D0B2F1C05F6AD0B2F16F
:10158000006F37D0002070BC7047B2F1405F48D088
:10159000B2F1605F45D0B2F1205FF3D100F01F00DF
:1015A00001228240CD075A644CBF5A661A6611F078
:1015B0000A0F14BF1A625A628C0768D5C3F88020DC
:1015C0005A611A60012070BC704700F01F020120B0
:1015D00000FA02F25A641C6F14431C675C6F5D6F63
:1015E0002C4024EA0204C9075C675A6016D55A6683
:1015F00070BC704700F01F02012000FA02F25A642A
:101600001D6F1C6FD643254035401D675C6F5D6FB5
:101610002C4034405C67CC075A60E8D41A6670BC32
:10162000704700F01F000122824001F0040401F025
:101630006050C9075A644CBF5A661A6664B31A658B
:10164000B0F1605F0CBF1A635A631A611A6001201F
:1016500070BC704700F01F02012000FA02F25A64C9
:101660001C6F1D6F2C4024EA02041C675C6FCE07C0
:1016700044EA02045C675A60D0D5B8E700F01F0264
:10168000012000FA02F25A641C6F1443EDE70807C8
:1016900048BFC3F8842093E75A65D1E7D0F85031AA
:1016A000034A01210B43C0F850311160704700BF5D
:1016B00064F90020D0F85031034A002123F00103DF
:1016C000C0F850311160704764F9002014490B6B69
:1016D00023F07003184308638B6E180758BF4FF44C
:1016E000006302D504E0013B17D08A6E1207FAD5D9
:1016F0000B490B6B23F0030343F002030B638B6E68
:10170000180758BF4FF4006302D504E0013B04D032
:101710008A6E1207FAD5002070470120704700BF7B
:1017200000040E40B8B9104A136A23F45C1323F086
:101730000303090243F45C1389B243F001030B4332
:101740001362936EDB07FCD5136A43F09B7343F47B
:101750008033136270470449044A086A044B02400C
:1017600013430B62704700BF00040E40FCFFC8FE2D
:1017700002003701024B986E00F48030704700BFC2
:1017800000040E40024B4FF000529A62704700BFB7
:1017900000040E40024B986E00F00200704700BF3C
:1017A00000040E4010B40902084C094BD2B201F4F7
:1017B0007C51114304EA004000220143DA621A46D8
:1017C000D962936E5B07FCD510BC70470000FF0721
:1017D00000040E40222819D81F280E4A09D80123D8
:1017E000916903FA00F030EA010311D01061002082
:1017F000704701232038D2F8081103FA00F030EACC
:10180000010305D0C2F80001002070470120704795
:101810000020704700040E402DE9F0410B20254EBA
:10182000254C264DB0470C20B047254B254A4FF498
:1018300000604FF48017012180261861C3F8A000D2
:1018400058631F61C3F8A0701F635161C2F8A010F4
:10185000116350614FF00061C2F8A00010631E6177
:101860000320C3F8A0605E63A0474FF0006104202E
:10187000A04771211020A04771210F20A0472946C1
:101880001820A04729461920A04729461A20A0471A
:1018900029461B20A04729461C20A04729461D2079
:1018A000A04729461E20A047294623461F20BDE801
:1018B000F0411847D5174000551540000100002899
:1018C000000E0E4000100E40FEE700BF19491A48F6
:1018D000814208B50ED817D2184B0A1F181A0244B5
:1018E00090B1C1F1040152F8040943F8040DCA4251
:1018F000F9D109E0114B984206D2C2431A4422F0B2
:10190000030204320E4B984700BF0E480E4B98421C
:1019100007D2C2431A4422F00302043200210B4BC7
:1019200098470B4B0B4A9A600B4B98470B4B9847C9
:10193000FEE700BF547D400000000020C8090020E1
:10194000E91C4000C809002090F900201D1E40003D
:1019500000ED00E000004000991C4000E91A400042
:10196000324A136B03F00303012B39D022D3136ADD
:10197000D90145D52E492F4B0B602C4A106B00F036
:10198000030002280BBF906AD06A926AD26AC0F341
:101990000A4000FB03332548D2B2B3FBF2F3026BDB
:1019A00002F07002702A15D1234AA2FB03235B08C0
:1019B0000B607047214B1E495B6913F0800F14BF09
:1019C0004FF400434FF4FA431848026B02F07002E0
:1019D000702AE9D0026BC2F30212D3400B60704749
:1019E000136ADB0119D4124915480860126A02F023
:1019F0007002102A17D00F4B202A18BF0346E3E7C6
:101A00000B490F4B0B60126A02F07002102A07D0CC
:101A1000202AB2D1074B0B60AFE7064B0449D3E74E
:101A2000084B0B60A9E7074BCEE700BF00040E4050
:101A300014000020001BB700ABAAAAAA10140E4085
:101A400000093D0000127A00124B984215D9124B42
:101A500098420ED9114B984218D9114B984211D97E
:101A6000104B9842104B8CBF104A4FF004221A6062
:101A700070470D4B0E4A1A6070470B4B4FF0806257
:101A80001A607047084B0B4A1A607047064B0A4AA7
:101A90001A607047FF2C3101FF596202FF869303E1
:101AA000FFB3C404FFE0F505000A0E400005000482
:101AB000000100040003000400020004074A084972
:101AC00013683BB118448142A6BF106018464FF01E
:101AD000FF307047034B1360F4E700BF880A002013
:101AE000FCFF0120902901202DE98048444BDFF8BC
:101AF0008CB1444DDFF888A1434C444F444EADF5C2
:101B00007B7D98474348444B9847444B9847444B08
:101B10009847444B0B2098474348D847434B0B20EA
:101B200098474348D847434B9847434B9847434BC4
:101B30009847434B984702E02B68002B5AD1E36B40
:101B400013F00108F8D03F4BDFF838913E4CDFF836
:101B500038813E4F3E4E98473E4B00221A60D9F8DE
:101B600000103846A047D8F800103046A0472B6830
:101B7000DBB9254BDB6BDB070ED537492448D04753
:101B8000364B1B78EBB1364B1B68012B13D9354B09
:101B90009847354B9847E2E7224B0B20984733484C
:101BA000D8470B20214B9847D9E718491848D04708
:101BB00000232B60D3E72A4B1B6843B12C48D8473E
:101BC000CDE72C491248D0472948D847C7E7DFF866
:101BD000BCC0BCE80F00EE46AEE80F009CE8030076
:101BE000254B8EE803000221684698471C4A0123D2
:101BF0001360E3E739463046D047C5F800809EE7DA
:101C00007D144000780A002000100E405C7A4000ED
:101C10000040024050140E40D10B40001918400003
:101C2000CD1040003915400037140D001D1540003F
:101C30006EE51B05A11240004113400091134000C6
:101C40001D0E4000E50B4000D50E400050F5002071
:101C500028F500208C0A0020687A4000800A0020C5
:101C6000840A0020890D4000ED1340001C8A060004
:101C700025CA8200747A4000DD1340000100002074
:101C8000A10B40000C00002010000020847A4000CE
:101C90000A22002100F0A2BC70B50F4E0F4D761B3A
:101CA000B61018BF002405D0013455F8043B9847FE
:101CB000A642F9D10A4E0B4D761B06F035F8B61048
:101CC00018BF002406D0013455F8043B9847A642BB
:101CD000F9D170BD70BD00BF347D4000347D40003F
:101CE0003C7D4000347D4000844641EA000313F00F
:101CF00003036DD1403A41D351F8043B40F8043B13
:101D000051F8043B40F8043B51F8043B40F8043BD5
:101D100051F8043B40F8043B51F8043B40F8043BC5
:101D200051F8043B40F8043B51F8043B40F8043BB5
:101D300051F8043B40F8043B51F8043B40F8043BA5
:101D400051F8043B40F8043B51F8043B40F8043B95
:101D500051F8043B40F8043B51F8043B40F8043B85
:101D600051F8043B40F8043B51F8043B40F8043B75
:101D700051F8043B40F8043B403ABDD2303211D315
:101D800051F8043B40F8043B51F8043B40F8043B55
:101D900051F8043B40F8043B51F8043B40F8043B45
:101DA000103AEDD20C3205D351F8043B40F8043B15
:101DB000043AF9D2043208D0D2071CBF11F8013B13
:101DC00000F8013B01D30B8803806046704700BFD9
:101DD000082A13D38B078DD010F003038AD0C3F1E8
:101DE0000403D21ADB071CBF11F8013B00F8013BCA
:101DF00080D331F8023B20F8023B7BE7043AD9D389
:101E0000013A11F8013B00F8013BF9D20B7803705D
:101E10004B7843708B7883706046704770B4860748
:101E200046D0541E002A41D0CAB2034602E014F143
:101E3000FF343BD303F8012B9D07F8D1032C2ED997
:101E4000CDB245EA05250F2C45EA054519D903F120
:101E500010022646103E0F2E42F8105C42F80C5C31
:101E600042F8085C42F8045C02F11002F2D8A4F1D6
:101E7000100222F00F0204F00F041032032C13445E
:101E80000DD91E462246043A032A46F8045BFAD8C6
:101E9000221F22F003020432134404F003042CB185
:101EA000C9B21C4403F8011B9C42FBD170BC7047B3
:101EB00014460346C2E700BF0EB4F0B59CB021AB98
:101EC0000F4953F8042B019305466FF0004408684E
:101ED00002954FF402774FF6FF7602A90695ADF80A
:101EE000147004940794ADF8166000F08DFB029B0B
:101EF00000221A701CB0BDE8F04003B0704700BF6C
:101F000018000020C9B2002941D08207F0B467D080
:101F10000378002B68D0994237D0431C04E013F8B3
:101F2000010B90B381422FD09A071C46F7D1256848
:101F300041EA012343EA034383EA0506A6F101309F
:101F4000A5F1013220EA060022EA0502024312F05E
:101F5000803F11D1204650F8046F83EA0607A7F1AD
:101F60000135A6F1013225EA070522EA06022A43D5
:101F700012F0803FEFD00446207818B905E014F83D
:101F8000010F10B18142FAD12046F0BC704783079F
:101F900024D00378002BF9D0431C03E002780133EE
:101FA000002AF3D099071846F8D11968A1F1013237
:101FB00022EA010212F0803F08D153F8041FA1F178
:101FC000013222EA010212F0803FF6D01A78184658
:101FD00042B110F8013F002BFBD170470346E4E704
:101FE0000446A4E7184670471846CEE72DE9F041AD
:101FF0004FF0010E744600254FF0FF362B198B422F
:1020000000EB06070DD23F5D10F803C0BC452DD292
:102010001D460124A3EB060E2B198B4200EB06078D
:10202000F1D34FF00108C2F800E0444600254FF01C
:10203000FF372B19994200EB070E0ED91EF804E06A
:1020400010F803C0F44518D91D460124A3EB070876
:102050002B19994200EB070EF0D80137701C87420C
:1020600024BFC2F800803846BDE8F0810CD04FF0A4
:10207000010E2E4674467544C0E70BD04FF00108A0
:102080002F4644464544D4E7744512BF01341D46EB
:102090000124B3E7444512BF01341D460124C8E7BB
:1020A0002DE9F04FADF2144D164605468B4610460D
:1020B000194603AA1C46FFF799FF03AB81460DF2B0
:1020C0000C4243F8044F9342FBD14CB1631E721E85
:1020D00004A812F8011F40F8213013F1FF33F8D2A1
:1020E00003994A463144304602F0D2FF00286FD1AE
:1020F00009F1FF330093F31882460193234680468B
:10210000544658469A4608EB0A073A1A00212844D2
:1021100002F06EFF002856D1002F54D0EB1904AA0C
:1021200013F8013C52F823304BB124B1039A934287
:1021300001D2AAEB0203984400243846E3E74C4559
:1021400023460AF1FF3E38BF4B46734513D208EBD6
:10215000030216F803C0A85C84452A4406EB030179
:1021600006D02CE011F801CF12F8010F844526D1DA
:1021700001337345F6D34C45009980F08980009B6C
:1021800008EB0302019BA85C1B7898422A447FD18C
:10219000019804F1FF3B06E010F801CD12F801EDC3
:1021A000F44503D119464B1E9B45F5D101348C42B1
:1021B00070D8039C3846A044AAEB0404A3E7C9F1F5
:1021C00001029044B7E700200DF2144DBDE8F08FF6
:1021D000A4EB09034B4538BF4B46013309F1FF38E7
:1021E000039306EB080358464FF0000ACB46994686
:1021F0000AEB04073A1A0021284402F0F9FE0028ED
:10220000E1D1002FDFD0EB1904AA13F8013C52F8FA
:102210002330A3BB611E8B4515D20AEB0B0216F8C7
:102220000B3015F802E09E452A4406EB0B005B4696
:1022300006D027E010F801CF12F801EFF44521D1C4
:1022400001338B42F6D3B8F1FF3F11D00AEB0802FD
:1022500099F80010AB5C99422A440FD14B4605E037
:1022600013F8010D12F8011D884207D1B342F7D1CE
:1022700005EB0A000DF2144DBDE8F08F039B9A4464
:102280003846B5E7CBF1010292449A443846AFE7AD
:1022900049468BE705EB080096E700BF0278002A65
:1022A00000F001812DE9F04F91F8008085B044469F
:1022B000B8F1000F16D0864601F1010C012703E0AA
:1022C00013F8014B6CB19C46A24214BF002707F0E3
:1022D00001071EF8012F6346002AF1D19CF8003057
:1022E000FBB917B105B0BDE8F08F0E460546414673
:1022F0000130ACEB0604FFF705FE074688B1012C60
:10230000F0D02819874294BFC11B01211F2C8B4696
:102310000BD9234632463846FFF7C2FE05B0BDE86A
:10232000F08F002005B0BDE8F08F03AA21463046AB
:10233000FFF75CFE0399804602463144304602F0C6
:10234000A7FE002857D108F1FF330093F318814608
:10235000054601935846B2466619321A00213844A0
:1023600002F046FE0028DCD1002EDAD0C8454346F4
:1023700038BF4B469C4212D95A191AF80310B85C60
:1023800081423A440AEB030E06D02CE01EF8010FFE
:1023900012F8011F884226D101339C42F6D1C8456C
:1023A000009940F28380009BEA18019BB85C1B787F
:1023B00098423A447AD1019809F1FF3B06E010F8BF
:1023C00001CD12F801EDF44503D119464B1E5B45D2
:1023D000F5D109F10109894557D8039B30461D44C1
:1023E000A4EB0309B8E7C8F1010215441D444FF0FE
:1023F00000093046B0E7A4EB0803434538BF434625
:10240000013308F1FF39039306EB09035846002511
:10241000BB469A4667193A1A0021584402F0E8FD73
:1024200000287FF47EAF002F3FF47BAF444515D9E1
:1024300008EB050216F808301BF8020098425A44CF
:1024400006EB0801434606D023E011F801EF12F82D
:10245000010F86451DD101339C42F6D1B9F1FF3FF2
:1024600012D005EB09029AF800301BF802109942CD
:102470005A4414D1534605E013F8010D12F8011D1A
:1024800088420CD1B342F7D15F46781905B0BDE858
:10249000F08FC8F1010215441D443846BAE7039B8A
:1024A00038461D44B6E70B7813B97047414690E7AC
:1024B000002070472DE9F84FDDF828900F46804640
:1024C00016461D468A4600E0A2465446484614F881
:1024D00001BB02F0B1FA5844427812F00802F3D17D
:1024E000BBF12D0F4FD0BBF12B0F04BF94F800B000
:1024F0000AF102041DB1102D56D0AC4604E0BBF128
:10250000300F60D00A25AC46002A0CBF6FF000499E
:102510004FF000490021B9FBFCFE08460CFB1E9A57
:1025200005E029D00CFB0030012114F801BBABF110
:102530003003092B05D9ABF14103192B0BD8ABF1B3
:1025400037039D420FDDB1F1FF3FEED08645E8D263
:102550004FF0FF31E9E7ABF16103192B03D8ABF181
:1025600057039D42EFDC4B1C13D002B1404246B1F1
:10257000C1B93760BDE8F88F9A45D3DA4FF0FF3123
:10258000D3E7BDE8F88F94F800B001220AF1020405
:10259000B0E72223C8F80030EEB1671E4846376026
:1025A000BDE8F88F8146F8E7BBF1300FA5D123785D
:1025B00003F0DF03582BA0D14FF0100C94F801B0BA
:1025C00065460234A0E7237803F0DF03582BF3D0ED
:1025D0000825AC4698E74846BDE8F88F30B5084C6A
:1025E000084B25686C6B83B0002C08BF1C46009418
:1025F00013460A4601462846FFF75CFF03B030BD8C
:10260000180000204C0400202DE9F04FC3B00C4608
:102610000B9192460F930C9002F012FA03681A93F2
:10262000184603F08DF8A3891990190603D523697C
:10263000002B01F0038000230DF1C80913931593BB
:1026400014932793269318931B930993CDF8949092
:10265000C846169317939AF800305446E3B1252BD9
:1026600002D119E0252B03D014F8013F002BF9D13A
:10267000A4EB0A0585B1269B279AC8F800A0013370
:102680002A44072BC8F80450279226937FDC08F1D0
:102690000808099B2B4409932378002B7FD0002343
:1026A0001A468DF8773019460D939B464FF0FF3050
:1026B00063780A9004F1010A0AF1010AA3F12000EB
:1026C000582800F2C183DFE810F03802BF03BF03CF
:1026D0004002BF03BF03BF03BF03BF03BF034502E5
:1026E0000302BF035D006B02BF0386029D039D03CF
:1026F0009D039D039D039D039D039D039D03BF03B8
:10270000BF03BF03BF03BF03BF03BF03BF03BF03B9
:10271000BF0337035703BF035703BF03BF03BF0301
:10272000BF039803BF03BF03AD03BF03BF03BF03D2
:10273000BF03BF035902BF03BF031E03BF03BF0391
:10274000BF03BF03BF03BF03BF03BF03BF03BF0379
:10275000C602DB025703570357038B02DB02BF039A
:10276000BF039002BF039D02CC01B4020802BF0365
:10277000E101BF037E00BF03BF030D020D980F935D
:1027800040420D904BF0040B9AF8003094E725AAD4
:102790000B990C9803F042F840B9C84679E7279B9B
:1027A00023B10C980B9925AA03F038F80B9B9B8951
:1027B00013F0400F099B18BF4FF0FF33099309989E
:1027C00043B0BDE8F08F1BF0200F119340F0DD8186
:1027D0000F9A1BF0100F134640F06E851BF0400F50
:1027E00000F06A8514880432002501230F92002727
:1027F0008DF877700A994A1C00F065822BF08002F0
:10280000079254EA050240F06482002940F03C84BB
:10281000002B40F0D7841BF001030E9300F00486D8
:1028200042AE302306F8413D0A9B0E9A9342B8BF50
:10283000134608930023129317B1089B01330893A2
:10284000079B13F00203109302D0089B02330893F6
:10285000079B13F0840540F00E830D9B089AA3EBB1
:10286000020BBBF1000F40F30683BBF1100F279C56
:10287000269A29DD43462146A84610270C9C0B9D2D
:1028800006E0ABF1100BBBF1100F03F1080318DDEC
:102890000132B74826921031072A279183E8810038
:1028A000EFDD25AA2946204602F0B8FF00287FF474
:1028B0007DAFABF1100BBBF1100F2799269A4B4659
:1028C000E6DC45460C4698460132A94B26925C440C
:1028D000072A279488E8080800F398849DF8777001
:1028E00008F1080877B1269B013301340DF1770117
:1028F0000122072B2794269388E8060000F3DB8348
:1029000008F10808109B6BB1269B013302341EA905
:102910000222072B2794269388E8060000F3D6832B
:1029200008F10808802D00F015830A9B0E9A9F1A63
:10293000002F36DD102F269B8E4D27DD4246214687
:10294000B0464FF0100B2E460C9C0B9D04E0103F40
:10295000102F02F1080215DD01331031072B2791EA
:10296000269382E84008F2DD25AA2946204602F097
:1029700055FF00287FF41AAF103F102F2799269B90
:102980004A46E9DC35460C464646904601333C440F
:10299000072B2794269388E8A00000F3818308F191
:1029A0000808079BDF0500F16882269B0E99C8F88E
:1029B000006001330C44072B2794C8F804102693B9
:1029C00000F34D8308F10808079B5B073AD50D9B80
:1029D000089A9D1A002D35DD102D269B20DD10262E
:1029E0000C9FDDF82CB004E0103D102D08F1080814
:1029F00016DD01335E4A26931034072B279488E8AE
:102A00004400F1DD25AA5946384602F007FF0028A8
:102A10007FF4CCAE103D102D279C269BC846E8DCE9
:102A20000133534A26932C44072B279488E824002B
:102A300008DD25AA0B990C9802F0F0FE00287FF41F
:102A4000B5AE279C099B0D9A08998A42ACBF9B188A
:102A50005B180993002C40F00D8300232693C84691
:102A6000F9E511931BF0200340F0E3811BF0100205
:102A700040F02E841BF0400300F02A840F99134687
:102A80000A4604320C880F920025B0E60F9A119383
:102A9000166800248DF87740151D002E00F0A786DB
:102AA0000A9A531C00F009862146304602F0A0FA2B
:102AB000002800F0E186831B0E930A940F95CDF851
:102AC0001CB023EAE373089312949DF87770B3E681
:102AD0009AF8003001222B21EEE54BF0200B9AF8FA
:102AE0000030E9E51193002A40F09587224B1893B6
:102AF0001BF0200F40F011810F9A1BF0100F1346AE
:102B000040F0E1831BF0400F00F0DD8304331488B4
:102B10000F9300251BF0010F00F00C8154EA050310
:102B200000F0088130239DF844208DF878308DF82E
:102B300079204BF0020B022359E69AF80030002965
:102B40007FF4BAAD01222021B6E54BF0010B9AF8D3
:102B50000030B1E50F9C23680D93184600282346EA
:102B600003F10403FFF60AAE0F939AF80030A3E5D1
:102B7000E47A4000F47A4000C47A40004BF0100B35
:102B80001BF0200F11933FF423AE0F9D073525F066
:102B9000070303F10802D3E900450F92012326E65B
:102BA0009AF800302A2B0AF1010400F02787A3F1DC
:102BB00030000928A24600F2AD8600231C461AF810
:102BC000013B04EB840400EB4404A3F1300009282A
:102BD000F5D90A9472E54BF0800B9AF800306BE55A
:102BE0004BF0400B9AF8003066E59AF800306C2BF9
:102BF00003BF9AF801304BF0200B0AF1010A4BF0A9
:102C0000100B59E5002A40F011871BF0200F40F00F
:102C1000F9841BF0100F40F0AC841BF0400F00F063
:102C2000A8840F9A136804320F92BDF824201A80EA
:102C300011E50F99B34B0C681893302278230431B7
:102C40008DF8793011934BF0020B0F9100258DF820
:102C500078200223CBE50F9911930A688DF8A02004
:102C600000230A461F468DF877300432012308936B
:102C7000CDF81CB00A9712970F920E9328AEDFE59D
:102C80001193002A40F0EA861BF0200F5DD11BF063
:102C9000100F40F008831BF0400F00F004830F99E1
:102CA000B1F900400431E51722462B460F91002A66
:102CB00073F1000358DB0A999DF877704A1C4FF0B6
:102CC00001037FF49BAD54EA050200F0DF81CDF8EB
:102CD0001CB0012B00F07B82022B40F0068218987A
:102CE0004E46230904F00F0143EA05732A091C46E6
:102CF0001546435C06F8013D54EA0503F1D1A9EB02
:102D000006030E9390E51193002A40F0A3867E4BB4
:102D100018931BF0200F3FF4EFAE0F9D073525F001
:102D2000070303F108021BF0010F0F92D3E90045DE
:102D30007FF4F4AE02235AE51193002A40F0868610
:102D40004BF0100B1BF0200FA1D00F9D073525F085
:102D50000705D5E90023002A05F108011D4673F196
:102D600000030F911446A6DA2D27644265EB450552
:102D70008DF8777001233DE51193002A40F06286BB
:102D80000F9D073525F0070303F108020F921A681B
:102D900015925B681493149B159D23F000442846FC
:102DA00021464FF0FF32594B03F0E8FD002840F078
:102DB0004A83284621464FF0FF32544B03F0C0FDB2
:102DC000002840F0408315A80DC8149903F0AEFD0B
:102DD000002840F030859DF877704D4E4D4B2BF01C
:102DE0008000079011980322002108920A91472839
:102DF000D8BF1E460E9212911EE54BF0080B9AF8B2
:102E0000003059E4A3F1300000231C461AF8013BBE
:102E100004EB840400EB4404A3F130000928F5D945
:102E20000D944BE44BF0100B11931BF020033FF477
:102E30001DAE0F9D073525F0070303F10802D3E906
:102E400000450F920023D2E41193002A40F0E78559
:102E5000119A002A3FF4A3AC002301211F460891D8
:102E60008DF8A020CDF81CB08DF877300A9312931E
:102E70000E9128AEE4E4279C34E5119B652B40F3CA
:102E8000A78015A80DC8149903F046FD002800F08E
:102E90005081269B204AC8F80020013301340122CA
:102EA000072B27942693C8F8042000F36A8308F1BF
:102EB00008081F9B139A279C934203DB079BDD079F
:102EC0007FF582AD269B19991A9AC8F80020013324
:102ED0000C44072BC8F804102794269300F39E8314
:102EE00008F10808139B5E1E002E7FF76DAD102EB3
:102EF000269B0A4D40F3F58122461027DDF830B0BD
:102F00000B9C13E0C47A4000B07A4000FFFFEF7FD3
:102F1000A47A4000A07A4000E07A4000F47A4000B1
:102F200008F10808103E102E40F3DA810133103208
:102F3000072B2792269388E8A000F1DD25AA2146D9
:102F4000584602F06BFC00287FF430AC279A269B91
:102F5000C846E7E70D9B089A9F1A002F7FF7E5AC5C
:102F6000102F269BB64D27DD42462146B0464FF036
:102F7000100B2E460C9C0B9D04E0103F102F02F10D
:102F8000080215DD01331031072B2791269382E8C3
:102F90004008F2DD25AA2946204602F03FFC002821
:102FA0007FF404AC103F102F2799269B4A46E9DC9A
:102FB00035460C464646904601333C44072B279441
:102FC000269388E8A00000F3328208F10808ACE4F8
:102FD000139B269F012B40F3FE810137013401230F
:102FE000072F27942697C8F80060C8F8043000F32C
:102FF000038208F10808199A1A9BC8F800300137B3
:103000001444072F27942697C8F8042000F3008261
:1030100008F1080815A80DC8149903F07DFC139B4E
:10302000002840F00181013B013701361C44072F85
:1030300026972794C8F80060C8F8043000F3278169
:1030400008F108081B9AC8F804200137144421AB82
:10305000072F27942697C8F800307FF7B3AC25AA2E
:103060000B990C9802F0DAFB00287FF49FAB279CA9
:10307000C846A9E425AA0B990C9802F0CFFB0028BA
:103080003FF4EBACFFF792BBDDF81CB0012B00F076
:103090003481022B25D1CDF81CB0002400251EE67A
:1030A00025AA0B990C9802F0B9FB00287FF47EAB9F
:1030B000279CC84675E425AA0B990C9802F0AEFB34
:1030C00000287FF473AB279CC8461BE425AA0B9904
:1030D0000C9802F0A3FB00287FF468AB279CC8463D
:1030E00020E4CDF81CB000240025494600E031461C
:1030F000E20842EA4572E80804F007030546144670
:10310000303354EA050201F8013C01F1FF36EED1FB
:10311000079AD2077FF5F3AD302B3FF4F0AD0239BB
:10312000302306F8013CA9EB01030E930E46FFF78E
:103130007BBB1F99002940F32E82129B139A934266
:10314000A8BF1346002B1F460DDD269BC8F8006064
:1031500001333C44072B2794C8F80470269300F3EE
:103160001F8308F10808129B002FA8BFDB1B002B50
:103170001F4640F3D680102F269B314D40F3ED8142
:1031800042462146B0464FF0100B2E460C9C0B9D3C
:1031900004E00832103F102F40F3DB81013310317F
:1031A000072B2791269382E84008F2DD25AA2946BD
:1031B000204602F033FB00287FF4F8AA2799269BCB
:1031C0004A46E7E70A9B0E934E46FFF72DBB002DBC
:1031D00008BF0A2CC0F08F804E46204629460A229E
:1031E000002303F009FC303206F8012D2046294661
:1031F00000230A2203F000FC04460D4654EA0503AE
:10320000EBD1A9EB06030E93FFF70EBB25AA0B9992
:103210000C9802F003FB00287FF4C8AA9DF8777091
:10322000279CC846FFF75EBB5E1E002E7FF70AAFE5
:10323000102E034D22DD22464FF0100B0C9C06E0B1
:10324000F47A4000103E102E08F1080815DD013711
:103250001032072F2792269788E82008F2DD25AA4A
:103260000B99204602F0DAFA00287FF49FAA103E5C
:10327000102E279A269FC846E9DC144601373444AD
:10328000072F2794269788E860007FF7D9AE25AAF4
:103290000B990C9802F0C2FA00287FF487AA279CA9
:1032A000269FC846CEE60F9A146813460433E517E6
:1032B0000F9322462B46FAE404321C680F92012336
:1032C0000025FFF794BA1C6804330F93002521E40E
:1032D0000F990A4604320C680F920025FFF787BA4F
:1032E000144601333444072B2794269388E8600062
:1032F0007FF768ABB3E6DDF81CB0CDF81CB042AE8A
:103300003034012306F8414D0E93FFF78DBA25AAFC
:103310000B990C9802F082FA00287FF447AA279CA8
:10332000C8461F9A139B9A4244DB079BD90741D496
:10333000139B12989A1A1D1A9542A8BF1546002D84
:103340000EDD2699C8F80450013106442C440729A3
:10335000C8F800602794269100F33B8208F1080822
:10336000002DACBF561B1646002E7FF72DAB102E3E
:10337000269BB04DB5DD22461027DDF830B00B9C02
:1033800004E008F10808103E102EA9DD01331032C8
:10339000072B2792269388E8A000F2DD25AA214674
:1033A000584602F03BFA00287FF400AA279A269B91
:1033B000C846E8E7269B19981A99C8F80010013307
:1033C0000444072B2794C8F80400269300F3F581E2
:1033D00008F10808ACE7079BDA073FF5FEAD0137B7
:1033E00001340123072F27942697C8F80060C8F8F6
:1033F00004307FF725AE4AE725AA0B990C9802F016
:103400000DFA00287FF4D2A9279C269FC846F2E532
:1034100025AA0B990C9802F001FA00287FF4C6A99E
:10342000279C269FC846F5E54E46FFF7FDB925AA1D
:103430000B990C9802F0F2F900287FF4B7A9279CA9
:10344000C846FFF772BA159C22462046149C2346B4
:10345000214603F093FA002840F086820A9B01334C
:10346000119B23F020030E9300F0E281472B00F024
:103470001E814BF480730793149B1F1E159B0893AA
:10348000BBBF3B4603F1004700232D231093119B44
:10349000662B00F0BB81462B00F0DF800E9B089A64
:1034A000452B0CBF0A9B0A9D23A820A908BF5D1CC1
:1034B000049003911FA802213B46029001950091C0
:1034C0000C9800F075FB119B672B064640F0E081DD
:1034D0001BF0010F00F046827419169A0898179B8A
:1034E000394603F019FA002840F06581239BA34276
:1034F00006D230215A1C23921970239B9C42F9D882
:103500009B1B13930E9B472B00F0E980119B652BAF
:1035100040F3CD81119B662B1F9B129300F09E817F
:10352000139B129A1946914200F38A811BF0010FF6
:1035300040F0138222EAE273089367230E921193FC
:10354000109B002B40F0C4800A939DF87770FFF722
:1035500073B935460C464646904601333C44072B2A
:103560002794269388E8A0003FF7D1AE08F1080819
:10357000D7E60F9A136804320F92099A1A60FFF780
:103580006AB825AA0B990C9802F048F900287FF434
:103590000DA9C8468DE4269B274AC8F800200133B0
:1035A00001340122072B27942693C8F8042072DCEB
:1035B00008F1080829B9139B1BB9079BD8077FF5A9
:1035C00003AA269B19981A9AC8F8002001330246CC
:1035D0002244072B2792C8F80400269300F38D811C
:1035E00008F108080029C0F265811399C8F8006045
:1035F00001338C18072B27942693C8F804107FF703
:10360000E1A92CE50F9A09991368CD1708460432F1
:1036100029460F92C3E90001FFF71DB825AA0B99AF
:103620000C9802F0FBF800287FF4C0A8279CC8463D
:1036300058E400BFF47A4000E07A400040210C9842
:1036400001F010FA0B9A10601061002800F0F2816E
:103650000B9A40235361FEF7EEBF23A820A90A9CD2
:10366000049003911FA803210290089A01943B46FD
:1036700000910C9800F09CFA25460646119B462BBB
:1036800006EB05047FF429AF3378302B00F0788106
:103690001F9D2C4421E725AA0B990C9802F0BEF837
:1036A00000287FF483A81F99279CC84682E70A9BBD
:1036B000002B08BF01230A93DBE630460A9402F090
:1036C0003FF80F950E90CDF81CB00346FFF7F9B9FF
:1036D0002D2700238DF877700A93FFF7AEB81F9B54
:1036E00012931A46033304DB0A9B19469142BFF634
:1036F00017AF119B023B11939DF844308DF8843035
:10370000129B013B002B1F93BDBF129BC3F1010312
:103710002D222B22092B8DF8852040F316810DF1E7
:1037200093042046AB4D00E0104685FB0312D917E9
:10373000C1EBA20101EB8102A3EB42023032092965
:1037400000F8012C0B4600F1FF32EDDC303302387B
:10375000D9B2844202F8011C40F265810DF1860065
:10376000134601E013F8011B00F8011BA342F9D135
:1037700001339B1A0DF18602134421AA9B1A139A56
:103780001B93012A13440E9340F319810E9B199A3F
:1037900013440E9323EAE373089300231293CFE6B6
:1037A00025AA0B990C9802F039F800287EF4FEAF98
:1037B000279CC846D7E42346A2E625AA0B990C9875
:1037C00002F02CF800287EF4F1AF1F9A279CC8461F
:1037D000AEE525AA0B990C9802F020F800287EF49B
:1037E000E5AF1F9A139B279C9A1AC846B8E50A9B17
:1037F0001296062B28BF06230A96374608930F9584
:10380000CDF81CB00E93744EFFF716B823A820A96C
:103810000A9D049003911FA803210290089A019524
:103820003B4600910C9800F0C3F9064644192BE77B
:1038300006230A931DE62D278DF87770FFF7CDBA82
:10384000199A139B1344129A0E93002A40F3B080E6
:1038500023EAE37308936723119371E6002B40F387
:10386000C3800A9A002A40F099801BF0010F40F0B3
:10387000958008930E9363E60A9B08930E930A9033
:103880000F95CDF81CB012909DF87770FEF7D4BF5D
:10389000119B472B7FF420AE1BF0010F7FF4EEAE9F
:1038A000239B9B1B13930E9B472B3FF418AF1F9B2F
:1038B000129321E74F421031484D2FDA1024DDF8E2
:1038C00030B004E008F10808103F102F26DD013366
:1038D0001032072B27922693C8F80050C8F80440EE
:1038E000F0DD25AA0B99584601F098FF00287EF4D8
:1038F0005DAF279A269BC846E6E725AA0B990C9848
:1039000001F08CFF00287EF451AF1F99279A269B67
:10391000C84667E600200A90FEF7D0BE01333A445D
:10392000072B88E8A0002792269308F108087FF764
:103930005CAE25AA0B990C9801F070FF00287EF46C
:1039400035AF279A269BC8464FE6303330228DF894
:1039500087308DF8862022AB0FE7129B199A13440B
:103960000E9375E7239BCBE5149B1D4E002BB6BF32
:103970002D279DF877708DF877701A4BFFF72FBAC7
:10398000169A0898179B394602F0C6FF00287FF464
:103990007FAEC5F101051F952C449EE5129B199A37
:1039A00013440A9A1A4422EAE2730E920893C7E576
:1039B000129B0E9AC3F101031A441346D0E71BF081
:1039C000010312937FF4E2AE0E9B23EAE3730893A4
:1039D000B6E500BF67666666D87A4000F47A4000B4
:1039E000AC7A4000A87A40000A9B13B91BF0010F83
:1039F00002D0199B0133D4E701233AE70F9D9AF8CF
:103A00000130286840EAE0700A9028460430A24657
:103A10000F90FEF751BE8DF87710FFF767B88DF85D
:103A20007710FFF715BA0DF18603A6E68DF877102B
:103A3000FFF7EBB80C9A0C2313604FF0FF33099398
:103A4000FEF7BDBE8DF87710FFF79AB98DF87710A5
:103A5000FFF776B98DF87710FFF759B98DF8771021
:103A6000FFF712B9024B13B1024800F005B87047D6
:103A700000000000054A4000002301461A4618468F
:103A800001F058BF02690B69934200F38D802DE964
:103A9000F04F03F1FF3801F1140700F1140B57F850
:103AA00028205BF828304FEA880483B00132B3FB4A
:103AB000F2F90BEB0403009407EB040A0193B9F14C
:103AC000000F39D000252E46BC46DE465CF8044B7C
:103AD000DEF80030A2B209FB0255220C2C0C09FBC7
:103AE0000242ADB2751B96B2C6EB134615FA83F3CC
:103AF00006EB23469BB243EA0643E2454FEA1245F2
:103B00004EF8043B4FEA2646E0D2009B5BF80330B8
:103B100093B9019C231F9B450CD254F8043C4BB92C
:103B2000A4F1080302E01A68043B1AB99B4508F1A6
:103B3000FF38F8D3C0F81080044601F0E3FC0028F9
:103B40002EDB09F101095D46002357F8041B2868A4
:103B50008AB29A1A0B0C12FA80F2C3EB104303EBF1
:103B6000224392B242EA0342BA4545F8042B4FEA97
:103B70002343EAD25BF828200BEB880382B91A1F93
:103B800093450BD253F8042C42B9083B02E01A6863
:103B9000043B1AB99B4508F1FF38F8D3C4F81080EC
:103BA000484603B0BDE8F08F0020704700000000D9
:103BB0002DE9F04F016C9BB00446279E92469B4630
:103BC00041B1426C4A60012393408B6001F0C2FA1C
:103BD00000232364BBF1000F5D4635DB0023336017
:103BE0009D4BAB4315D0504659460022002302F0AE
:103BF00093FE804600282DD0269A01231360289B2F
:103C0000002B00F0BD809548186001381BB0BDE85E
:103C1000F08F269A42F20F731360BAF1000F0DD1A4
:103C2000C5F3130555B9289B8D48002BEED000F144
:103C30000803289A13601BB0BDE8F08F289B8948C1
:103C4000002BE3D0C31CF4E701232BF000453360C5
:103C5000AB46C5E718AA19AB0192009352465B46E2
:103C6000204601F0EFFC2B0D814671D0CBF31302FF
:103C700042F07F51189FCDF850805046A3F2FF3696
:103C800041F440110022784B02F02AFA6CA3D3E9E8
:103C9000002302F0D9FB6CA3D3E9002302F022FA3F
:103CA000CDE90201304602F069FB69A3D3E90023A4
:103CB00002F0CAFB02460B46DDE9020102F012FAED
:103CC000CDE9040102F070FE002202900023DDE93C
:103CD000040102F02BFE002840F07381029D162D96
:103CE00000F25D81614B03EBC503D3E9000152464D
:103CF0005B4602F039FE002800F0C5816B1E02937E
:103D000000230E93BF1B7B1E069300F154810023FA
:103D10000893029B002BC0F24581069A0D93114631
:103D20001944002306910C93249B092B2AD8052BB8
:103D300040F35B86043B24930025249B023B032B2A
:103D400000F24286DFE813F0D403C902DF03610406
:103D5000189F199E3E4406F23243202B40F38E8179
:103D6000C3F1400306F212409D402AFA00F02843B6
:103D700002F0F4FA0123013EA1F1F871149381E7F6
:103D80003B4843E7002161642046259101F0BCF9DE
:103D90004FF0FF330A93259A0F9301230490206478
:103DA00024920B93199B002BC0F2D980029A0E2A01
:103DB00000F3D5802D4B03EBC203D3E90023CDE9FB
:103DC0000823259B002BC0F2BA83DDE90856504634
:103DD0002A463346594602F061FC02F0E5FD804672
:103DE00002F0CCFA2A46334602F02EFB0B4602467E
:103DF0005946504602F074F9049D08F130032B70C7
:103E00000A9B012B06460F4605F1010568D00022EA
:103E1000184B02F019FB0022002306460F4602F061
:103E20007BFD002840F08880CDF82C904FF0000AF0
:103E3000DFF840B00C94DDE9088928E0AFF300809A
:103E400061436F63A787D23FB3C8608B288AC63FA0
:103E5000FB799F501344D33F0000F07FE17A40008C
:103E6000047B4000107B40000000F83F507B400086
:103E7000E07A40000000244002F0E6FA002200232D
:103E800006460F4602F048FD002840F0C183424636
:103E90004B463046394602F001FC02F085FD0446EF
:103EA00002F06CFA42464B4602F0CEFA02460B464E
:103EB0003046394602F014F904F1300E049E05F83C
:103EC00001EBA5EB060E0A9EB645CDE9060152466A
:103ED0005B46D1D1A046DDF82C900C9C06460F46DF
:103EE00032463B463046394602F0FCF806460F465D
:103EF00002460B46DDE9080102F018FD48B93246DA
:103F00003B46DDE9080102F007FDA8B118F0010FFA
:103F100012D015F8018C049A6B1E04E09A4200F04E
:103F2000018413F8018DB8F1390F03F10105F5D0C3
:103F300008F1010883F800804946204601F00AF99B
:103F40000022029B2A70269A01331360289B002BC3
:103F500000F09E8304981D601BB0BDE8F08F0B9AA3
:103F6000002A3ED0249A012A40F311830A9B0C9A1E
:103F70005F1EBA42C0F28F83D71B0A9B002BC0F290
:103F80008B84089D0A9B089A1A440892069A01217C
:103F90001A442046069201F077F9064624E00123F0
:103FA0000E93AFE6089A029BD21A5B420C93002351
:103FB00008920D93B8E6C7F1010308930023069316
:103FC000A7E6029D284602F0D9F902460B46DDE934
:103FD000040102F0A1FC00287FF480AE6B1E029366
:103FE0007CE60C9F089D0B9E002D0CDD0699002998
:103FF0000B4608DDA942089AA8BF2B46D21AED1A33
:10400000CB1A089206930C9BD3B10B9B002B00F0AC
:10401000B782002F10DD31463A46204601F0D0F934
:104020004A4601460646204601F038F94946804690
:10403000204601F08FF8C1460C9BDA1B40F0A182AC
:104040000121204601F020F90D9B002B80461CDD4C
:1040500001461A46204601F0B3F9249B012B804605
:1040600040F3548200230C93D8F8103008EB8303FC
:10407000186901F0B9F8C0F1200010E0C3F1200583
:104080000AFA05F074E60E903CE6249B012B40F3FF
:10409000878200230C930D9B0120002BE4D1069A0C
:1040A000104410F01F0000F0A180C0F12003042B89
:1040B00040F39E84089BC0F11C0003440893134600
:1040C000034405440693089B002B05DD49461A4628
:1040D000204601F0C5F98146069B002B05DD4146CF
:1040E0001A46204601F0BCF980460E9B002B40F09A
:1040F00086800A9B002B40F366820B9B002B00F00E
:104100009880002D05DD31462A46204601F0A8F9A9
:1041100006460C9B002B40F0378306960A9B049AB8
:10412000DDF818B0013BD3180B930AF001030C9390
:104130001746C24651464846FFF7A4FC314605469D
:10414000484601F0DFF95A460A905146204601F0F0
:10415000F5F9C268804605F13003002A40F02B8251
:1041600001464846089301F0CDF9414606902046A5
:1041700000F0F0FF069A089B32B9249921B90C9AF5
:10418000002A00F0EF83249A0A990029C0F29F8246
:1041900005D1249919B90C99002900F09882002AB8
:1041A00000F306830B9A3B7007F1010897424546DE
:1041B00000F00C83494600230A22204600F0D4FF79
:1041C0005E45814631464FF000034FF00A0220461B
:1041D00000F0EB8100F0C8FF5946064600230A2292
:1041E000204600F0C1FF47468346A3E71C20089BFA
:1041F00003440893069B03440544069363E7414642
:10420000484601F07FF90028BFF673AF029F494688
:1042100000230A222046013F029700F0A5FF0B9BD6
:104220008146002B40F0B6830F9B002B40F3BF83E9
:104230000A93DDF810B00A9F5D4602E000F094FF9B
:10424000814641464846FFF71DFC00F1300A05F85B
:1042500001ABA5EB0B03BB424FF00A024FF000038A
:1042600049462046EADB049B0A9A012AACBF9B1808
:1042700001331D464FF0000B49460122204601F054
:10428000EFF84146814601F03DF9002840F33D82B8
:1042900015F8012C04996B1E04E08B4200F0AE81EE
:1042A00013F8012D392A03F10105F6D001321A70F5
:1042B0004146204600F04EFF002E3FF43DAEBBF1DC
:1042C000000F05D0B34503D05946204600F042FF09
:1042D0003146204600F03EFF2EE600230B93029B62
:1042E000259A13440F930133012B1F461E460A9350
:1042F000B8BF01270021172F61640AD901220423C6
:104300005B0003F114008742114602F10102F7D26B
:104310006164204600F0F8FE0E2E049020643FF603
:1043200041AD002D3FF43EAD02990029CDE910AB1F
:1043300040F30282B84B01F00F020D1103EBC203F0
:10434000E906D3E9006740F1AE81B44B50465946C7
:10435000D3E9082302F0A2F9CDE9120105F00F0517
:104360004FF0030A8DB1DFF8B482EA0709D5304671
:104370003946D8E9002302F067F80AF1010A064637
:104380000F466D1008F10808EFD13B463246DDE9D3
:10439000120102F083F9074688460E9B43B10022C2
:1043A0009F4B3846414602F0C1FA002840F0868211
:1043B000504601F0E3FF3A46434602F045F8994B78
:1043C000002201F08FFE0A9B0546A1F15076002BDA
:1043D00000F03E81029B15930A9B12930B9B002BCE
:1043E00000F0FA81129A8C4B8F4903EBC20353E918
:1043F0000223002002F052F92A46334601F070FEF3
:1044000082468B463846414602F0CEFA054601F018
:10441000B5FF02460B463846414601F061FE303595
:104420005FFA85F8049D06460F4685F8008002462F
:104430000B4650465946013502F096FA002854D1F1
:1044400032463B460020764901F04AFE02460B46C2
:104450005046594602F088FA002840F07082129ABD
:10446000012A00F01181129B049ACDF84890134460
:1044700099460DE000206A4901F032FE52465B4643
:1044800002F054FA002840F058824D4500F0FA80BE
:10449000504659460022654B01F0D6FF0022634B7F
:1044A00082468B463046394601F0CEFF0F4606461F
:1044B00002F07AFA804601F061FF02460B46304670
:1044C000394601F00DFE08F130085FFA88F85246CF
:1044D0005B4605F8018B06460F4602F027FA324686
:1044E0003B460028C6D0DDF84890159B029323E593
:1044F00000230B93259B002B40F3DC801F461E46B8
:104500000F930A93F6E601230B93F3E7BAF1000F3A
:104510007FF4A8ADCBF31303002B7FF4BAAD2BF0DF
:1045200000473F0D3F05002F00F00D82089B01332F
:104530000893069B0133069301230C93ABE50A9B7A
:10454000002B3FF742AC40F021820022384BDDE9DE
:10455000080101F079FF52465B4602F0FBF9DDF8F5
:1045600028804646002841D0259B049DDB430293CA
:104570004146204600F0EEFD002E3FF4DDACA7E6FC
:104580000C9A4946204600F01BFF814658E5149AD4
:10459000002A00F0878103F233430C9F089DF2E468
:1045A000BAF1000F7FF475ADB4E700F0DDFD4746CA
:1045B00006468346BEE501462046069300F0CAFD46
:1045C0000122069BE0E5249B022B7FF796AD0A9B18
:1045D000002BC9D141460522204600F0C5FD014609
:1045E0008046484600F08EFF0028BDDD029A0499FF
:1045F0003123013202920B704D1CB9E7029A01324D
:104600000292049A3123137052E601230B9366E65B
:10461000DDF82C900C9C8FE4507B4000287B400000
:104620000000F03F00001C400000E03F000024407C
:1046300000001440504601F0A1FE3A46434601F006
:1046400003FF0022C14B01F04DFD0546A1F150765C
:1046500041460022BE4B384601F042FD2A46334611
:1046600082468B4602F080F98046002840F0108197
:104670002A4606F100435046594602F057F918B150
:10468000464671E7DDF84890DDE910ABFFF78ABBDD
:104690000498FFF7BBBA0C9B0D9A0C97FB1A1A44AF
:1046A0000D92002769E4DDE910234FF0020ACDE9FD
:1046B000122357E60021012361642046259300F070
:1046C00023FD259B049020640A930F9329E6002A7A
:1046D000D046CDF818B09A4611DD49460122204651
:1046E00000F0BEFE4146814600F00CFF002840F37A
:1046F0004681BAF1390F00F0068105F1310AB3465F
:1047000087F800A07D1C069ED2E504D11AF0010FA7
:1047100001D0BDE5154615F8013C302B05F1FF32FF
:10472000F8D0C5E5049930220A70029A15F8018C78
:1047300001320292FFF7FCBB00F0BB80029B5D429E
:10474000844B05F00F0203EBC203D3E90023DDE93C
:10475000100101F079FE2D110746884600F02C81EA
:104760007D4E4FF0020AEB0709D538464146D6E99F
:10477000002301F069FE0AF1010A074688466D1020
:1047800006F10806EFD108E67168204600F0BCFC8F
:10479000336902339A00054606F10C010C30FDF72F
:1047A000A3FA29460122204600F05AFE0690B5E4FD
:1047B000392BCDF818B0D04600F0A58003F1010ADE
:1047C000B34687F800A07D1C069E71E55A46D04688
:1047D000B3469A4616464FE5129B5E4901EBC3016C
:1047E0002A46334651E9020101F02EFECDE91601B9
:1047F0003846414602F0D8F8054601F0BFFD0B46A9
:1048000002464146384601F06BFC129B0F46049964
:104810003035012B0D70064601F1010526D0129BA3
:10482000049ADFF83CB1CDF8489013444FF0000AE9
:10483000994652465B463046394601F005FE0F4622
:10484000064602F0B1F8804601F098FD08F1300804
:1048500002460B463046394601F042FC05F8018B12
:104860004D4506460F46E4D1DDF848903B4B00220B
:10487000DDE9160101F036FC32463B4602F056F8FF
:10488000002846D0159B029315F8018CFFF743BB17
:104890004FF000084646A9E6089B0A9A9D1A002395
:1048A000FFF771BB189B0C9F089DC3F13603FFF700
:1048B0006ABBDDE910784FF0020A6EE50A9B002B17
:1048C0003FF4B8AE0F9B002B7FF7DEAE0022244BE7
:1048D0003846414601F0B8FD074688460AF1010016
:1048E00001F04CFD3A46434601F0AEFD0022174B65
:1048F00001F0F8FB029A0F9B1293013A0546A1F1D1
:10490000507615926AE53922B3463A70069E7D1CB0
:10491000C0E4DDE916230020104901F0E1FB324636
:104920003B4602F021F808B9AEE6154615F8013C01
:10493000302B05F1FF32F8D0D7E5DDF84890159B14
:104940000293FFF7E8BA0C97FFF7A5BB00001C40E5
:1049500000001440507B4000287B40000000E03FF6
:1049600000002440392BCDF818B0D046DDF828B02F
:104970009A46C8D0BBF1000F3FF7BFAEBFE67FF449
:10498000BEAE1AF0010F3FF4BAAEB2E64FF0000827
:104990004646E9E5314600230A22204600F0E4FBC2
:1049A0000F9B002B06460ADD0A93FFF7AABB249B48
:1049B000022B23DC0F9B3BE44FF0020AEDE4249B27
:1049C000022B1BDC0F9BEFE7002565642946204680
:1049D00000F09AFB4FF0FF330A930F9301230490EA
:1049E000259520640B93FFF7DDB90125FFF7A5B9E5
:1049F0003FF469ABC0F13C00FFF7F9BB0F9B0A9392
:104A0000E5E500BF38B50A4C0A4D641BA4100AD076
:104A100004F18043013B05EB8305013C55F8043963
:104A20009847002CF9D1BDE8384003F087B900BFA2
:104A30004C7D4000487D4000D0F8EC00704700BF3E
:104A4000044A054B1268506B002808BF1846F03026
:104A5000704700BF180000204C040020704700BFC2
:104A6000704700BF2DE9F04F01F10B06162E83B001
:104A7000054640F29E8036F0070600F1BD80B14247
:104A800000F2BA8000F034FBB6F5FC7FC0F09382F0
:104A9000730A00F0B880042B00F27981B30903F1A6
:104AA000390003F1380EC300BF4F3B44A3F10801A6
:104AB0005C68A14206D10CE0002A80F2AA80E4687A
:104AC000A14206D0636823F003039A1B0F2AF3DD8B
:104AD00070463C69DFF8E4E2744500F0AB8163683E
:104AE00023F003039A1B0F2A00F39081002AC7F8D2
:104AF00014E0C7F810E080F29D80B3F5007F80F0ED
:104B00006181DB0803F1010C99107A6857F83C8049
:104B1000C4F8088001238B4007EBCC01134308390C
:104B2000E1607B6047F83C40C8F80C4082100124EB
:104B300094409C4200F28B801C4206D120F003007E
:104B400064001C4200F10400FAD007EBC009CC4617
:104B50008046DCF80C309C4507D16DE1002A80F2DC
:104B60007B81DB689C4500F06781596821F0030177
:104B70008A1B0F2AF2DDD3F80CC0D3F8088000930B
:104B80009C19284646F0010642F001055E60C8F80F
:104B90000CC0CCF808807C613C61C4F80CE0C4F81F
:104BA00008E065605A5000F0A9FA009B03F1080480
:104BB0001EE0102920D800F09BFA102618230220AE
:104BC000794F3B44A3F108025C68944200F03D81B8
:104BD0006368E168A66823F00303234428465A6803
:104BE000F16042F001028E605A6000F087FA0834EA
:104BF000204603B0BDE8F08F00240C2320462B6034
:104C000003B0BDE8F08F40204FF400734FF03F0E2B
:104C10004AE72344E1685A68A66842F00102F1605D
:104C200028468E605A6000F069FA0834204603B0C6
:104C3000BDE8F08F234428465A6842F001025A60CA
:104C400000F05CFA0834204603B0BDE8F08FBC6881
:104C5000636823F00308B04504D3A8EB06030F2BC9
:104C600000F38580DFF85891504BD9F800201B687D
:104C70000132334404EB080A00F0558103F58053F8
:104C80000F3323F47F6B2BF00F0B5946284600F0AF
:104C900035FD411C024600F0FC80824500F2F780A1
:104CA000434B19685944196000F04D81D9F8000050
:104CB00001301BBFA2EB0A0A5144C9F80020196059
:104CC00012F0070100F01581C1F10800C1F5805113
:104CD0000244083102EB0B09C9F30B09A1EB0909E6
:104CE000494628460193009200F008FD431C9DE8C8
:104CF0000C0000F04381801A484440F0010019681C
:104D0000BA604944BC425060196017D0B8F10F0F27
:104D100040F2FB806068A8F10C0222F0070204EB6D
:104D2000020E00F001004FF0050C10430F2A6060E6
:104D3000CEF804C0CEF808C000F217811D4BBC6845
:104D40001A68914288BF19601B4B1A6891426268C9
:104D500088BF196022F003029642A2EB060301D835
:104D60000F2B04DC284600F0C9F9002440E7A21903
:104D700043F0010346F0010666602846BA605360BE
:104D800000F0BCF90834204603B0BDE8F08F142BC6
:104D900071D9542B00F2A380330B03F16F0003F1A0
:104DA0006E0EC30080E600BFB8050020C00A0020D8
:104DB000900A0020B80A0020BC0A0020C00500208C
:104DC000C00900205A0A042A5BD9142A00F2AE80D6
:104DD00002F15C01C9005B3207EB010C7958ACF1C0
:104DE000080C8C4500F088804A6822F00302934248
:104DF00073D289688C45F7D1DCF80C207B68E260BF
:104E0000C4F808C09460CCF80C408FE6A11946F0B5
:104E1000010C42F00106C4F804C0284679613961EA
:104E2000C1F80CE0C1F808E04E60E25000F066F90D
:104E30000834DDE67B6879E608F1010818F0030F15
:104E40000CF1080C7FF485AE2DE0DC68A34208BFAE
:104E500002303FF43EAEBBE619441C464A68DB68AC
:104E600054F8086F42F001024A602846F3609E60E1
:104E700000F044F9BCE603F15C0003F15B0EC300F3
:104E800012E69A0902F13901C9003832A4E7BC429E
:104E900054D0BC68626822F003025DE759F8083913
:104EA000994540F0868010F0030F00F1FF30F5D1F6
:104EB0007B6823EA04037B6064009C423FF6C7AE34
:104EC000002C3FF4C4AE1C4240467FF43EAE64006A
:104ED0001C4200F10400FAD037E68C468CE7B3F5AB
:104EE000AA7F15D8F30B03F1780003F1770EC30006
:104EF000DAE54FF48051EDE67B689210012101FA6A
:104F000002F213437B60624679E70123536029E78D
:104F100040F25452934222D8B30C03F17D0003F1C6
:104F20007C0EC300C0E503F1100BAEE6542A29D86D
:104F30001A0B02F16F01C9006E324DE7204B196860
:104F400059441960B2E6CAF30B0000287FF4AEAEF4
:104F500008EB0B03BA6843F001035360EEE67F20D1
:104F60004FF47E734FF07E0E9EE504F10801284653
:104F7000009300F0C1FD009B1968DFE601204FF0AF
:104F80000009BCE6B2F5AA7F05D8DA0B02F1780178
:104F9000C900773220E740F254518A4205D89A0C72
:104FA00002F17D01C9007C3216E74FF47E717E224A
:104FB00012E77B6880E7F00806F1080300E600BF0F
:104FC000900A002082B049B15AB16BB113780B60DE
:104FD0001278101C18BF012002B0704701A9002AE6
:104FE000F3D1104602B070476FF00100F4E700BF44
:104FF00001F0FF01102A2BDB10F0070F08D010F88A
:10500000013B013A8B422DD010F0070F42B3F6D18D
:10501000F0B441EA012141EA014122F007047FF0A6
:1050200000070023F0E80256083C85EA010586EAFD
:10503000010685FA47F5A3FA87F586FA47F6A5FA39
:1050400087F68EB9EED1F0BC01F0FF0102F0070245
:1050500032B110F8013B013A83EA010313B1F8D1F0
:105060000020704701387047002D06BF35460338D1
:10507000073815F0010F07D1013015F4807F02BF0A
:10508000013015F4C03F0130F0BC0138704700BF5B
:10509000032A70B422D940EA01039B0711D0037898
:1050A0000C78A3421DD10A44013105E010F8013FFC
:1050B00011F8014BA34214D19142F7D1002070BCEA
:1050C00070470D680668AE420C46034601F10401C4
:1050D00000F1040008D1043A032AF2D8002ADED1F4
:1050E000ECE7181B70BC704721461846D7E700BF95
:1050F0000148FFF7B3BC00BF78F900200148FFF773
:10510000AFBC00BF78F90020C36C70B505460C46F3
:105110004BB153F8240080B1026843F824200023E7
:105120000361C36070BD2122042100F065FCE864C6
:1051300003460028EDD1002070BD012101FA04F6DC
:10514000721D2846920000F057FC0028F3D04460FE
:105150008660E4E731B1C36C4A6853F82200086006
:1051600043F82210704700BFF0B50C6983B00D46BC
:10517000064601F1140E0027DEF8000081B202FBA2
:105180000133010C180C02FB01019BB2013703EB48
:105190000143BC424EF8043B4FEA1143ECDC3BB107
:1051A000AA68944207DA05EB8402013453612C614A
:1051B000284603B0F0BD6968019301313046FFF71E
:1051C000A3FF2A69023205F10C01074692000C3058
:1051D000FCF78AFDF26C6968019B52F82100286097
:1051E00042F821503D46DEE7020C12040346B2B9F4
:1051F0000304102013F07F4F04BF1B02083013F08C
:10520000704F04BF1B01043013F0404F04BF9B00DC
:105210000230002B02DB5B0003D42020704700200B
:10522000E8E70130704700BF036813F0070201464A
:1052300007D0DA0721D4980721D49B080B600220FD
:10524000704798B298B1104613F0FF0F04BF1B0AC5
:1052500008301A0704BF1B0904309A0704BF9B08D3
:105260000230DA0707D45B0804D1202070471B0CFA
:105270001020E9E701300B607047002070475B08A1
:105280000B600120704700BF10B50C460121FFF7ED
:105290003BFF01224461026110BD00BF2DE9F04FC8
:1052A0000C691569AC4283B08B46164604DA224677
:1052B000B3462C460E461546DBF80830DBF80410E2
:1052C00004EB05089845C8BF0131FFF71DFF00F149
:1052D000140909EB880AD145009005D24B460021FC
:1052E00043F8041B9A45FBD806F1140C0CEB85031C
:1052F0000BF1140B9C450BEB840E4CD2CDF804A0A3
:105300009A46DCF80050AFB2EFB100214D465E4640
:105310000C4656F8042B286893B281B207FB03139E
:10532000120C010C234407FB021101EB13419BB249
:1053300043EA0143B64545F8043B4FEA1144E8D837
:105340002C60DCF800502D0C1DD0D9F800304846F8
:105350001C46594600220E88240C05FB06442244B4
:105360009BB243EA024340F8043B51F8043B046813
:105370001B0CA6B205FB036303EB12438E454FEAF9
:105380001342E8D803600CF1040CE24509F104096A
:10539000B7D8DDF804A0B8F1000F0BDD5AF8043CD3
:1053A000AAF1040A1BB105E05AF8043D13B9B8F19B
:1053B0000108F9D10098C0F8108003B0BDE8F08F63
:1053C00012F003032DE9F041144607462ED10D4695
:1053D000A4101CD0BE6C96B3E3074FF0000806D4AF
:1053E000641014D03068A8B10646E307F8D53246F9
:1053F00029463846FFF752FFB5B16A68FB6C641066
:1054000053F82210296043F822500546EAD1284675
:10541000BDE8F081324631463846FFF73FFF306045
:10542000C0F800800646E0E70546D9E75A1E0B4D56
:10543000002355F82220FFF797FE0546C8E7012113
:105440003846FFF761FE40F27121012200234161DD
:1054500002610646B8640360BEE700BF187C4000E6
:105460002DE9F84391460A698B684FEA691404EB09
:10547000020808F101059D420E460746496804DD11
:105480005B009D4201F10101FADC3846FFF73CFE6A
:10549000002C00F1140306DD03EB8402002143F825
:1054A000041B9A42FBD1346906F1140119F01F095B
:1054B00001EB840E1DD0C9F1200C00220C6804FA07
:1054C00009F4144343F8044B51F8042B8E4522FA97
:1054D0000CF2F3D81A600AB108F10205FB6C72688D
:1054E000013D53F822100561316043F82260BDE8A8
:1054F000F883043B51F8042B43F8042F8E45F9D868
:10550000ECE700BF30B40B6905460069C01A0FD143
:105510009B001435143119442B4401E09D4207D2FD
:1055200053F8044D51F8042D9442F7D002D30120D2
:1055300030BC70474FF0FF30FAE700BF2DE9F04173
:105540000F690E4611697F1A002F904617D1890006
:1055500006F1140502F1140E6B18714401E09D422E
:105560005CD253F8042D51F8044DA242F7D05ED21C
:1055700033462C46464675469846012705E058DBDB
:1055800006F1140508F1140400277168FFF7BCFD4B
:10559000D8F810303669C76004EB830CA64605EBDB
:1055A000860700F1140400235EF8041B55F8048BF1
:1055B0008AB213FA88F3090C9A1AC1EB184303EB69
:1055C000224392B242EA0342F44544F8042B4FEAE4
:1055D0002343E9D8AF4217D9A446AE465EF8042B60
:1055E00013FA82F3191401EB12419BB243EA014210
:1055F00077454CF8042B4FEA2143EFD8ED432F4475
:1056000027F0030704373C44043C22B954F8043D16
:10561000013E002BFAD00661BDE8F0810021FFF7C2
:1056200073FD0122002302614361BDE8F0817446ED
:10563000ABE7334606F1140402F1140516460127C0
:105640009846A2E72DE9F04182B001211C46C3F340
:105650000A571546089EFFF757FDC4F3130480460A
:105660000FB144F4801401941DB302A840F8085D02
:10567000FFF7DAFD002834D19DE80C00C8F81420AB
:10568000002B0CBF01210221C8F81830C8F81010F7
:10569000DFB908EB8103A0F2324030601869FFF7F0
:1056A000A3FD099BC0EB41101860404602B0BDE865
:1056B000F08101A8FFF7B8FD019BC8F81430012163
:1056C0002030C8F81010002FE3D0099BA7F2334711
:1056D0000744C0F1350037601860404602B0BDE8AD
:1056E000F0819DE80A00C0F1200203FA02F20A43A9
:1056F000C3400193C8F81420C2E700BF38B5074C77
:105700000023054608462360FCF7D8F9431C00D067
:1057100038BD2368002BFBD02B6038BD8CF90020EE
:105720000000000000000000000000000000000079
:105730000000000000000000000000000000000069
:1057400090F800F06DE9024520F007016FF0000CC1
:1057500010F0070491F820F040F049804FF0000469
:105760006FF00700D1E9002391F840F000F1080044
:1057700082FA4CF2A4FA8CF283FA4CF3A2FA8CF37C
:105780004BBBD1E9022382FA4CF200F10800A4FAE3
:105790008CF283FA4CF3A2FA8CF3E3B9D1E9042337
:1057A00082FA4CF200F10800A4FA8CF283FA4CF36E
:1057B000A2FA8CF37BB9D1E9062301F1200182FA28
:1057C0004CF200F10800A4FA8CF283FA4CF3A2FA2E
:1057D0008CF3002BC6D0002A04BF04301A4612BA3C
:1057E000B2FA82F2FDE8024500EBD2007047D1E93F
:1057F000002304F00305C4F100004FEAC50514F0CE
:10580000040F91F840F00CFA05F562EA05021CBF9E
:1058100063EA050362464FF00004A9E72DE9F04F63
:10582000936883B09046002B70D082460C46176870
:105830008D68086842E0A38913F4906F2ED06569E3
:10584000216905EB4505A0EB010B05EBD5750BF1C7
:1058500001006D103044A8422A4684BF05462A46FE
:105860005B0538D511465046FFF7FCF800283CD0C0
:105870005A4621690190FCF737FAA289019B22F46C
:10588000906242F08002A281A5EB0B0203EB0B00B9
:10589000656123612060A2603546B3465A46494699
:1058A00000F010FAD8F80830A2682068551B584458
:1058B0009E1BA5602060C8F808603EB37E683B462A
:1058C0000837002EFAD0AE42D3F80090AB46B2D2E1
:1058D0003546B346E2E7504600F058FA0346002842
:1058E000D2D12169504600F007F90C23CAF80030E4
:1058F000A389002243F040034FF0FF30A381C8F892
:105900000820C8F8042003B0BDE8F08F0020C8F8D4
:10591000040003B0BDE8F08F21B1FF2A04D80A705B
:1059200001207047084670478A2303604FF0FF301C
:10593000704700BF2DE9F8432C4D0646286898466D
:105940000F469146FFF78AF8294B1C68D4F8483176
:10595000002B3ED05A681F2A1CDC02F1010E76B1E2
:1059600003EB82010124C1F88890D3F888019440A8
:105970002043022EC3F88801C1F8088123D00232E7
:10598000C3F804E0286843F82270FFF769F80020A4
:10599000BDE8F883174B0BB34FF4C870AFF300802A
:1059A0000346D8B1D4F848210260002141600A467C
:1059B000C4F848014FF0010EC0F88811C0F88C11EE
:1059C000002EDCD0CCE7D3F88C110C43C3F88C410B
:1059D000D5E704F5A673C4F84831BBE72868FFF79C
:1059E0003FF84FF0FF30BDE8F88300BF48040020C7
:1059F0009C7A40000000000010B502FB01F1FFF7A7
:105A000031F80446D8B150F8042C22F00302043ACD
:105A1000242A18D8132A14D900231B2A03604360B0
:105A200016D9242A8360C36011BF00F110020361FC
:105A3000436100F118020023136053609360204615
:105A400010BD0246F7E70021FCF7E8F9204610BD3B
:105A500000F10802EFE700BFF8B5244F0C460646F8
:105A6000FFF746FBBB685D68C4F57E610F3125F02A
:105A70000305294421F47F6121F00F01A1F5805431
:105A8000B4F5805F07DB00213046FFF737FEBB68C7
:105A90002B44984204D03046FFF730FB0020F8BD7D
:105AA00061423046FFF72AFE01300DD0104BBA6834
:105AB00019682D1B45F001053046091B556019601A
:105AC000FFF71CFB0120F8BD00213046FFF716FE52
:105AD000BA68831A0F2BDEDD064C0549246843F0B3
